:020000040800F2
:1000000078060020ED010008451900083D19000898
:100010004119000819130008A11D00080000000084
:10002000000000000000000000000000B11A0008FD
:100030002118000800000000B91900089D1B0008E5
:10004000070200080702000807020008070200086C
:10005000070200080702000807020008070200085C
:10006000070200080702000807020008070200084C
:10007000070200080702000807020008070200083C
:10008000070200080702000807020008070200082C
:10009000070200080702000807020008070200081C
:1000A000070200080702000807020008070200080C
:1000B00007020008070200080702000807020008FC
:1000C00007020008070200080702000807020008EC
:1000D00007020008070200080702000807020008DC
:1000E00007020008070200080702000807020008CC
:1000F00007020008070200080702000807020008BC
:1001000007020008070200080702000807020008AB
:10011000070200080702000807020008070200089B
:10012000070200080702000807020008070200088B
:1001300000F002F800F04AF80AA090E8000C8244AF
:100140008344AAF10107DA4501D100F03FF8AFF28C
:10015000090EBAE80F0013F0010F18BFFB1A43F0A5
:1001600001031847FC2300001C240000103A24BFA0
:1001700078C878C1FAD8520724BF30C830C144BF0C
:1001800004680C607047000000230024002500264E
:10019000103A28BF78C1FBD8520728BF30C148BFEA
:1001A0000B607047662902F08E81642900F0808020
:1001B000002070471FB500F05DFB04000020002107
:1001C00001F0D6FEE0601FBD10B510BD00F06EFC62
:1001D0001146FFF7EFFF01F065FE00F08CFC03B461
:1001E000FFF7F2FF03BC01F0F1FD00000948804772
:1001F00009480047FEE7FEE7FEE7FEE7FEE7FEE709
:10020000FEE7FEE7FEE7FEE704480549054A064B20
:1002100070470000B51B000831010008780000207D
:100220007806002078020020780200207047000045
:100230000FB4044910B503AA029800F009FB10BCE2
:100240005DF814FB000000202DE9F0410E46044645
:10025000002020622046E168884730B3252805D079
:10026000D4E901219047206A401CF2E7E16820466A
:1002700000278847050018D0A5F14100192802D8A9
:1002800020354FF400673246294620462760FFF7A5
:1002900089FF40B1012804D0F61D26F00706083674
:1002A000D8E7361DD6E72846DAE7206ABDE8F081B0
:1002B0002DE9F0410646002410687529314616A53F
:1002C00010D0AFF30080002802DA404213A507E007
:1002D00031688A0701D512A502E0490704D511A5A6
:1002E000012401E0AFF3008000210A2206F1240777
:1002F00009E0B0FBF2FCB0FBF2F302FB1C00303073
:1003000078541846491C0028F3D123462A46304623
:10031000BDE8F04100F033B8000000002D000000FF
:100320002B000000200000004FF0000200B5134633
:1003300094469646203922BFA0E80C50A0E80C5005
:10034000B1F12001BFF4F7AF090728BFA0E80C50B6
:1003500048BF0CC05DF804EB890028BF40F8042BAF
:1003600008BF704748BF20F8022B11F0804F18BF1C
:1003700000F8012B704770477047704770472DE9B0
:10038000F0470D4699469246044600F1240801685C
:10039000880604D5E06921F01001216000E0012009
:1003A000A84201DD471B00E00027A1697A1902EB92
:1003B0000900081AA0612078C00602D42046AFF3D5
:1003C0000080002608E0D4E901211AF806009047D1
:1003D000206A401C761C20624E45F4DB2078C00663
:1003E0000AD52046AFF3008006E0D4E90121302091
:1003F0009047206A401C2062381EA7F10107F4DCF8
:1004000007E0D4E9012118F805009047206A401C54
:100410002062281EA5F10105F3DC2046AFF3008021
:100420002078000602D50220BDE8F0870120FBE716
:1004300070472DE9FF4F0C461E464FF0FF378BB03B
:10044000D2E90001DDF860800A908A46C1F30A55BE
:1004500005B93D46002108464FF00000BAF1000FF3
:1004600000F4400005DA00EB80004FF4400101EA9F
:1004700050004FEA9059B9F1010F00DDB9460A98D2
:1004800050EA4A000ED044F61050A5F2FF3545431D
:100490002F14B8F1000F1ED07542291E1EDDC9F1C0
:1004A00000021CE0B8F1010F4FF0000001D0302134
:1004B00003E0F24305E02154401CB042FBDB304630
:1004C0000022002121540B99C1F80880C1E90020C5
:1004D0000FB0BDE8F08FBD1B6D1CDEE74A4600DAA9
:1004E000694206A800F068FA06AB93E8070003AB80
:1004F00083E8070050460A9900F046FB8DE80700A4
:10050000A0F500501F3800900398002D0ADD42F23C
:100510001F014A460844002303A90390684600F0DF
:10052000AFFD09E0A0F500504A461F38002303A99B
:100530000390684600F0B9FD8DE807000004000C48
:1005400003D04FF0FF30410800E01046B8F1000F33
:1005500003D00022009215461EE0751E05D400F05F
:100560008DF9303262556D1EF9D5B346012208432C
:1005700002D000227F1C04E02078302801D1002224
:100580007F1E002A099784D01DE0112D07DA00F0A4
:1005900075F9303262556D1C50EA0102F5D10843FD
:1005A00002D00098C8B10EE00021681E05E0235C6F
:1005B000625C63542254401E491C8142F7DBAB4607
:1005C000A81B401E0990002004F80B000B98099A04
:1005D000C0F80880C0E9002B7AE711264FF0000828
:1005E00057E72DE9F04F88460446D21D22F0070157
:1005F00091B0D1E90001CDE90A0101F0D3FB024637
:100600000B98C00F01D02D2007E02068810701D58D
:100610002B2002E0202101EAC000032A099001D02A
:10062000072A05DB03464146204600F085F90BE129
:100630002078800601D5E06900E00620B8F1650F5A
:10064000814606D0B8F1660F18D0B8F1670F70D1A7
:1006500031E00020B9F1110F009001DB112301E01E
:1006600009F101030AAA01A90CA8FFF7E2FEDDE9DE
:100670000C70002609F10105834647E001204B4636
:1006800000904FF000470AAA01A90CA8FFF7D1FE7D
:10069000DDE90DB00C995D46002610B909F10100A5
:1006A0000D18B9EB050003D4C0F1FF3609F10105BF
:1006B000A5EB09002BE0B9F1010F01DA4FF00109B8
:1006C0000020B9F1110F0090484601DD112300E030
:1006D00003460AAA01A90CA8FFF7ABFEDDE90C70DE
:1006E0004D4600268346207800070AD4AB4500DA41
:1006F0005D4601A8012D04DD411911F8011C3029C6
:1007000007D04F4502DA17F1040F04DA01208246C0
:100710000FE06D1EEEE7002F02DCED1B3E4403E010
:10072000781CA84200DD7D1CB81B00F1010A4FF0C7
:1007300000472078000703D4AA4501DB4FF0FF3AB9
:100740000021B7F1004F0DF143088DF8431024D07C
:1007500002202B23002F01DA7F422D230A21021EC3
:10076000A0F1010000DC5FB197FBF1FC97FBF1F217
:1007700001FB1C7C17460CF1300C08F801CDEEE7AC
:10078000A8F1010003702188090501D5452100E089
:100790006521A0F1010800F8011C09980FA9A1EB3F
:1007A0000807FF1D00B10120411901EBEA70A169A2
:1007B0003844081A401EA0612078C00602D42046A2
:1007C000AFF30080099828B1D4E901219047206A4D
:1007D000401C20622078C00622D52046AFF300805E
:1007E0001EE0002E04DBB34502DD01A8805D00E0C1
:1007F0003020D4E901219047206A401C2062761CF9
:10080000AAF101005FEA000A0AD100F033F8C068DB
:100810000168405CD4E901219047206A401C2062B5
:10082000281EA5F10105DCDC07E0D4E9012118F858
:10083000010B9047206A401C2062381EA7F1010777
:10084000F3DC2046AFF30080032011B041E6000046
:10085000074B70B50D467B4400F05BF80446284614
:1008600000F01CF910B14FF0FF3070BD204670BD94
:100870002F160000004870473800002030B5B0F156
:100880000A024FEA900E71F100034EEA817EB0EB4E
:100890000E0061EB91014FEA101E4EEA017E10EB53
:1008A0000E0041EB11114FEA102E4EEA016E10EBD3
:1008B0000E0041EB11214FEA104E4EEA014E10EBB3
:1008C0000E0041EB1141401841F100014FEAD00008
:1008D00040EA41704FEAD10110EB80054FEA8104F4
:1008E00044EA907444EB01046D1944EB0404521B78
:1008F000A3414FF0000348BF0A3200D530BD401C71
:1009000041F1000130BD000001694A1C0261087814
:10091000704700B58FB0CDE901310021059105493F
:100920007944CDE9031011466846FFF78DFC0FB0FE
:1009300000BD0000E5FFFFFF2DE9F0411F46044622
:1009400003260168072A01F4006004DB08B116A53C
:1009500005E016A503E008B115A500E015A521F0F6
:1009600010002060A069C01EA0610FB1401EA061F0
:100970002046AFF300804FB1D4E9012138469047BB
:10098000206A401C2062C01C206206E0206AFAE750
:10099000D4E9012115F8010B9047761EF8D22046C4
:1009A000AFF30080BDE8F0814E414E006E616E00F5
:1009B000494E4600696E66002DE9F04781461646AD
:1009C0008AB0354878440DC88DE80D003248784427
:1009D000801C03AC0DC884E80D0041F69B30084430
:1009E000372190FBF1F290FBF1F5A5F1800501FBB9
:1009F00012041B3C02D56442012000E00020DFF815
:100A000098A080460027FA44AAF1BE0A0EE0E0074B
:100A10000AD03246684607EB470101230AEB810101
:100A200000F043FB8DE8070064107F1C002CEED122
:100A3000194F7F44AE3F19E0E80715D007EB0410CB
:100A40000DF1180A90E80E008AE80E00C068F04226
:100A500001D1981908903246012306A903A800F095
:100A600024FB03AB83E807006D10641C002DE3D169
:100A70004FF0010332466946B8F1000F03A802D0D7
:100A800000F0FEFA01E000F010FBC9E90001C9F82E
:100A900008200AB0BDE8F087801B0000007B00F052
:100AA0008000704700487047180000207546FFF727
:100AB000F9FFAE4605006946534620F0070085461B
:100AC00018B020B5FFF7A0FBBDE820404FF00006AE
:100AD0004FF000074FF000084FF0000B21F0070126
:100AE000AC46ACE8C009ACE8C009ACE8C009ACE869
:100AF000C0098D46704710B50446AFF3008020460C
:100B0000BDE81040FFF76BBB4FF0013C50F8042BE1
:100B100051F8043B9A4221D1A2EB0C03934313EA10
:100B2000CC1317D150F8042B51F8043B9A4215D13D
:100B3000A2EB0C03934313EACC130BD150F8042B14
:100B400051F8043B9A4209D1A2EB0C03934313EAF8
:100B5000CC13DBD04FF00000704700BFD01A01BAB1
:100B6000B1FA81F101F0180122FA01F0CB40C1F194
:100B70002001DBB2C0B2C01A2CFA01F3D11A9143A2
:100B800011EAC311E6D170475FEA400C08BF91F04B
:100B9000000F4FEA8C234FEAC12243EA51514FEA3A
:100BA0001C5018BF00F5F0404FEA300018BF41F06C
:100BB00000415FEA6C5C00F02980BCF1FF3F08BF98
:100BC00040F080407047130C06BF12044FF0100C29
:100BD0004FF0000C130E04BF12020CF1080C130F9F
:100BE00004BF12010CF1040C930F04BF92000CF12E
:100BF000020CD30F04BF52000CF1010C11464FF050
:100C00000002A0F11F00A0EB0C00704711F0004F94
:100C100008BF704731F000413FF4D5AF0B0C06BF61
:100C200009044FF0100C4FF0000C0B0E04BF09022A
:100C30000CF1080C0B0F04BF09010CF1040C8B0F15
:100C400004BF89000CF1020CCB0F04BF49000CF16A
:100C5000010CCCF12003A0EB0C0022FA03F302FA02
:100C60000CF241EA030100F10100704720F07F4CD3
:100C700080EA030023F07F47ACEB070303F57C53C6
:100C800000F0004003F1FF032DE980494FEA154BC6
:100C900009B44FEA144325EA0B4E24EA03480FF245
:100CA000042606EB132749083E785FEA320203FB6D
:100CB0000667C7F5000707FB06F64FEA54374FEA09
:100CC000D64606F1020607FB066CCCF1005C4FEA43
:100CD0001C472CEA074C07FB06F40CFB06F504EB5B
:100CE00015464FEA961634BF00204FF000404FEAF9
:100CF000D13706FB07FC4FEA1C4C0CFB0BF7D21B51
:100D000003FB0CF761EB07010CFB0EF7B0EB0740A0
:100D100072EB17420CFB08F734BFA2EB0742B2EBB1
:100D2000074261EB17414FEA0C444FEA910706FB7B
:100D300007FC4FEA1C4C0CFB0BF7B0EBC74072EB07
:100D4000573203FB0CF734BFA2EBC742B2EBC742EA
:100D500061EB57310CFB0EF7B0EBC70072EB57722B
:100D60000CFB08F734BFA2EBC702B2EBC70261EB82
:100D70005771039F4FEA816141EA921104EBCC0461
:100D80004FEAD1374FEA826206FB07FC42EA901233
:100D90004FEA80604FEA1C4C0CFB0BF7D21B03FBA5
:100DA0000CF761EB07010CFB0EF7B0EB074072EBA1
:100DB00017420CFB08F734BFA2EB0742B2EB074225
:100DC00061EB17414FEA8C554FEA910704EB9C24E5
:100DD00006FB07FC4FEA1C4C0CFB0BF7B0EBC740C3
:100DE00072EB573203FB0CF734BFA2EBC742B2EBF6
:100DF000C74261EB57310CFB0EF7B0EBC70072EB4B
:100E000057720CFB08F734BFA2EBC702B2EBC70264
:100E100061EB577115EB4C254FEA816141EA921164
:100E20004FEA82624FEAD13742EA901206FB07FC92
:100E300044F100044FEA80604FEA1C4C0CFB0BF7B6
:100E4000D21B03FB0CF761EB07010CFB0EF7B0EBB9
:100E5000074072EB17420CFB08F734BFA2EB0742C6
:100E6000B2EB074261EB174115EB1C154FEA8131DC
:100E700041EA92414FEA823242EA90424FEA8030A0
:100E80004FEA0C7644F1000448EA03434EEA0B486B
:100E90004FF0000EB2EB080C71EB030724BF624663
:100EA00039464EEB0E0E4FF0000B001852414941EF
:100EB0004BEB0B0BB2EB080C71EB03077BF1000B58
:100EC00024BF624639464EEB0E0E4FF0000B001861
:100ED000524149414BEB0B0BB2EB080C71EB030792
:100EE0007BF1000B24BF624639464EEB0E0E51EAF1
:100EF000020718BF46F0010616EB0E7655F1000208
:100F000054F1000103D5BDE88901BDE80088BDE8C2
:100F10008901BDE80048B619524141EB0101A3F136
:100F20000103704780807F7E7D7C7B7A797877763D
:100F300076757473727171706F6E6E6D6C6C6B6AB6
:100F40006A69686867666665646463636261616054
:100F5000605F5F5E5E5D5D5C5C5B5B5A5A595958D1
:100F6000585757565655555554545353525252513B
:100F7000515050504F4F4F4E4E4D4D4D4C4C4C4B91
:100F80004B4B4A4A4A4949494848484747474746D8
:100F90004646454545444444444343434342424214
:100FA00042414141002B9C4630D477002BD01CB5E8
:100FB0004FEA370703B44FF010004FF01001BAF1B9
:100FC000000F06D0BCF1000FDCBF40F0080040F07D
:100FD00008014FF000000FBCBDE810400BF1010B01
:100FE000BBF1010F08BF5FEA170722BF12F1010230
:100FF00011F101014FF0004143F1000300F0004006
:1010000043EA00007047F9D35708D0E746EA06469E
:1010100013F1400F4FEA16461FDD13F1200FDFBF1B
:1010200016430A46002120335B42BED0C3F120079D
:1010300046EA064602FA07F74FEA164646EA070668
:10104000C3F1200722FA03F201FA07F721FA03F1AC
:101050004FF0000342EA0702A7E746EA020646EA23
:1010600006464FEA164646EA0106BCBF46EA064671
:10107000360C4FF000034FF000024FF0000194E7F0
:101080002DE9804C9A46934670B491E8380007C821
:1010900031EA400C48BF34EA430C03D5FFF7E6FDC4
:1010A000FFF780FFF0BCBDE8008C2DE9804C9A462C
:1010B000934670B491E8380007C810F0804F08BF1D
:1010C00013F0804F03D100F005F8FFF76BFFF0BC81
:1010D000BDE8008C20F07F4780EA030023F07F4CBE
:1010E00007EB0C03A3F57C5300F00040A3F1FE03D3
:1010F00092F0000F00F0B38095F0000F00F07780C1
:101100002DE901494FEA11404FEA144621EA00480F
:1011100000FB06FC24EA064708FB06F607FB08F876
:1011200000FB07F718EB06484CEB164C4FEA124B46
:1011300018EB07484FEA15464CEB174022EA0B4ED6
:101140000BFB06FC25EA06470EFB06F607FB0EFE28
:101150000BFB07F71EEB064E4CEB164C4FF0000650
:101160001EEB074E4CEB174B18EB0B0840F1000041
:1011700018EB0E0B58EB000840F100008F1A4FF0EF
:1011800000013CBFC943661B14BFB5EB040C002132
:101190003CBFC943F61B4FEA17444EEA8E0E27EABE
:1011A00004454FEA1C4704FB07622CEA074C05FB89
:1011B00007F70CFB05F604FB0CFC16EB074642EBAD
:1011C000174216EB0C4642EB1C421BEB060658EB93
:1011D0000202414146EA9E0601D5BDE80189B619E1
:1011E000524141EB0101A3F10103BDE801894FEA3E
:1011F00014454FEA114724EA054621EA074C05FB4E
:1012000007F406FB07F70CFB06F105FB0CFC11EBE2
:10121000074144EB17444FEA124711EB0C4144EBF2
:101220001C4422EA074C05FB07F206FB07F70CFB00
:1012300006F605FB0CFC16EB074642EB174216EBD5
:101240000C4642EB1C456A1854F1000148BF704738
:10125000B619524141EB0101A3F10103704795F02A
:10126000000F37D04FEA11424FEA144721EA0246F5
:1012700024EA074C02FB07F106FB07F70CFB06F418
:1012800002FB0CFC14EB074441EB17414FEA1547F6
:1012900014EB0C4441EB1C4125EA074C02FB07F51B
:1012A00006FB07F70CFB06F602FB0CFC16EB0746E9
:1012B00045EB174516EB0C4645EB1C42121951F154
:1012C000000148BF7047B619524141EB0101A3F13B
:1012D000010370474FEA14454FEA114724EA0546D7
:1012E00021EA074C05FB07F106FB07F70CFB06F2AA
:1012F0004FF0000605FB0CFC12EB074241EB1741D7
:1013000012EB0C4251EB1C4148BF7047921841EB65
:101310000101A3F10103704700BFFEE770B500258E
:101320003C241748406820F470401549486008463E
:10133000406840F40040486008E0601EC4B23C2CA5
:1013400001D1284670BD012000F081FD0C48806865
:1013500000F400600028F0D1F02409E0084880681B
:1013600000F4006008B1012507E0012000F06FFDE6
:10137000201EA4F10101CCB2F0D100BF2846E1E764
:10138000002001402DE9F84F064600F025F95520D0
:1013900000F00AFA002404E0305D00F005FA601C59
:1013A000C4B2082CF8DB442000F0FEF900F014F978
:1013B000552000F0F9F9002404E0305D00F0F4F964
:1013C000601CC4B2082CF8DBBE2000F0EDF900F080
:1013D0006FF9814600F06CF90546072D05DD6FEACF
:1013E000090000F0FF09E843C5B209EB052000B28F
:1013F0000090009800F001FE074600220D4B00F01F
:1014000013FE824600F0CAFD00B20090009800F082
:10141000F7FF8346084900F031FF824600F002FFE3
:1014200007463A460B4605A0FEF702FF0098BDE8C6
:10143000F88F00000000E43F00002041CEC2B6C893
:101440003A25660D0A00000008B50121080200F0E7
:10145000B5FA4FF40060ADF8000010208DF80300DD
:1014600003208DF802006946054800F0DAF94FF4D0
:101470000061034800F060FA00F0AEF808BD00001B
:10148000002001402DE9F04FA1B083460F464FF0F8
:101490000008402111A8FEF747FF44216846FEF7E7
:1014A00043FF00260020387000BF00F095F8F020C0
:1014B00000F07AF9002474E0002567E04FEA68083C
:1014C00000F0AEF882460AF0030ABAF1010F07D124
:1014D000002005EBC40111AA505400F031F953E08B
:1014E000BAF1020F09D1012005EBC40111AA505431
:1014F00048F0800800F024F946E0BAF1000F3BD133
:1015000005EBC400401C00F0FF091DF8060048452B
:101510000CDA701CC6B20DF80690002000F010F92D
:10152000002005EBC40111AA50542DE01DF806005F
:1015300048450EDD05EBC40011A9085C00F0010070
:1015400048EAC01805EBC40111AA505C00F0F8F895
:101550001AE01DF80600484516D148F08008012021
:1015600005EBC40111AA505400F0EAF800200DF870
:101570000600701EC6B207E011A0FEF759FE00205B
:10158000387021B0BDE8F08F681CC5B2082D95DB1E
:1015900038780BEBC00000F804804FF00008601CA6
:1015A000C4B2082C88DB3878401C38701DF806005F
:1015B00018B1387804287FF778AF00BFE1E7000062
:1015C000D7DCCFDFC9CFC3BBD3D04453313842328D
:1015D00030C6F7BCFE0D0A0010B51048406820F474
:1015E00070400E4948600846406840F440504860EA
:1015F0000846C06820F40060C8604FF42F7000F007
:1016000026FC0648C06840F400600449C8600F200A
:1016100000F01DFCFFF782FE10BD0000002001401D
:1016200070B5002400253DE06006040E1F484068A8
:1016300020F470401D4948600846406840F440501E
:1016400048600846C06820F40060C860012000F0CF
:10165000FEFB1648C06840F400601449C8600C20C6
:1016600000F0F5FB1148406820F470400F494860D5
:101670000846406840F4004048600846806800F42E
:10168000006008B144F00104322000F0E0FB07489C
:10169000C06840F400600549C860022000F0D7FB34
:1016A000681CC5B2022DBFDB204670BD0020014082
:1016B00070B5002500243DE02048406820F47040CB
:1016C0001E4948600846406840F44050486008465B
:1016D000C06820F40060C860012000F0B8FB174823
:1016E000C06840F400601549C8600C2000F0AFFBF2
:1016F0001248406820F4704010494860084640682D
:1017000040F4004048600846806800F4006018B16A
:101710000120A0402843C5B2322000F098FB0748C2
:10172000C06840F400600549C860022000F08FFBEB
:10173000601CC4B2082CBFDB284670BD00200140ED
:1017400010B504461748406820F4704015494860B9
:101750000846406840F4405048600846C06820F49D
:101760000060C8600C2000F072FB04F0010030B192
:101770000C48C06840F400600A49C86005E00948A8
:10178000C06820F400600749C860372000F05FFBA4
:101790000448C06840F400600249C860012000F0BD
:1017A00056FB10BD0020014070B504461B48406840
:1017B00020F47040194948600846406840F44050A1
:1017C0004860002527E01548C06820F400601349F0
:1017D000C8600C2000F03BFB04F0010030B10F4862
:1017E000C06840F400600D49C86005E00B48C0685F
:1017F00020F400600949C860372000F028FB074842
:10180000C06840F400600549C860012000F01FFB7B
:101810006410681CC5B2082DD5DB70BD00200140E6
:1018200070472DE9F04102460025002600200023E4
:101830000024002791F803C00CF00F0591F803C0B5
:101840000CF0100CBCF1000F03D091F802C04CEA70
:10185000050591F800C0BCF1000F31D014680020DC
:101860002BE04FF0010C0CFA00F3B1F800C00CEAC9
:1018700003069E4220D183004FF00F0C0CFA03F7B1
:10188000BC4305FA03FC4CEA040491F803C0BCF124
:10189000280F06D14FF0010C0CFA00FCC2F814C05E
:1018A0000AE091F803C0BCF1480F05D14FF0010CDC
:1018B0000CFA00FCC2F810C0401C0828D1D31460F8
:1018C000B1F800C0BCF1FF0F34DD546800202EE0F9
:1018D00000F1080C4FF0010808FA0CF3B1F800C051
:1018E0000CEA03069E4221D183004FF00F0C0CFA44
:1018F00003F7BC4305FA03FC4CEA040491F803C067
:10190000BCF1280F05D100F1080C08FA0CF8C2F858
:10191000148091F803C0BCF1480F07D100F1080C06
:101920004FF0010808FA0CF8C2F81080401C082893
:10193000CED35460BDE8F0814161704700BFFEE73F
:1019400000BFFEE77047000070B5002100230F22A2
:10195000C47804B3154C246804F4E064C4F5E0646E
:10196000210AC1F10403CA40447804FA03F18478DF
:101970001440214309010E4C0678A155047804F067
:101980001F050124AC4005786D11AD0005F1E0257F
:10199000C5F8004109E0047804F01F050124AC40BB
:1019A000044D0678761145F8264070BD0CED00E038
:1019B00000E400E080E100E07047000029B1064A41
:1019C00092690243044B9A6104E0034A926982439C
:1019D000014B9A61704700000010024030B50021B1
:1019E0000022002400232D4D6D6805F00C0121B16B
:1019F000042905D0082923D105E0294D056022E0FE
:101A0000274D05601FE0254D6D6805F47012234DCC
:101A10006D6805F48034022505EB92421CB9214D16
:101A2000554305600BE01D4D6D6805F400351DB193
:101A30001C4D5543056002E0194D5543056002E019
:101A4000174D056000BF00BF144D6D6805F0F00133
:101A50000909154D6B5C0568DD4045600F4D6D68EB
:101A600005F4E061090A104D6B5C4568DD40856056
:101A70000A4D6D6805F46051C90A0B4D6B5C4568F1
:101A8000DD40C560054D6D6805F44041890B074D8B
:101A90006B5CC568B5FBF3F5056130BD0010024015
:101AA00000127A0000093D0004000020140000200C
:101AB000704710B500F002F810BD00000CB5002012
:101AC000019000903348006840F48030314908604C
:101AD00000BF3048006800F4003000900198401CBE
:101AE0000190009818B90198B0F5A06FF1D129487C
:101AF000006800F4003010B10120009001E00020E7
:101B000000900098012843D12348006840F010005D
:101B1000214908600846006820F003000860084674
:101B2000006840F0020008601A484068194948609F
:101B30000846406848600846406840F48060486055
:101B40000846406820F47C1048600846406840F42D
:101B5000E81048600846006840F08070086000BFE8
:101B60000C48006800F000700028F9D0094840686F
:101B700020F00300074948600846406840F0020032
:101B8000486000BF0348406800F00C000828F9D105
:101B90000CBD0000001002400020024070470020F1
:101BA0004FF0E02108610846006920F00400086158
:101BB0007047000010B51348006840F0010011495B
:101BC000086008464068104908400E4948600846C9
:101BD00000680E4908400B4908600846006820F478
:101BE000802008600846406820F4FE0048604FF4FA
:101BF0001F008860FFF75DFF4FF000600449086038
:101C000010BD0000001002400000FFF8FFFFF6FECC
:101C100008ED00E010B586B00446012144F204004E
:101C2000FFF7CCFE4FF40070ADF8140018208DF8CB
:101C3000170003208DF8160005A91B48FFF7F1FDDA
:101C40004FF48060ADF8140004208DF817000320D5
:101C50008DF8160005A91448FFF7E3FD0194002054
:101C6000ADF80800ADF80A00ADF80C00ADF81000B2
:101C70000C20ADF80E0001A90C4800F025F8252035
:101C80008DF8000003208DF801008DF8020001207E
:101C90008DF803006846FFF757FE0121034800F066
:101CA00007F806B010BD00000008014000380140F0
:101CB00021B1828942F40052828104E082894DF68A
:101CC000FF731A40828170472DE9F04786B00546C0
:101CD0000E460024A24600BFA1460027B08900B1ED
:101CE00000BF2F462C8A4CF6FF700440F088044356
:101CF0002C82AC894EF6F3100440B0883189084339
:101D0000718908430443AC81AC8A4FF6FF4004401C
:101D1000B0890443AC8201A8FFF760FE1F488742E8
:101D200002D1DDF810A001E0DDF80CA0A88900F4D4
:101D3000004040B10AEBCA0000EB0A1031684900CC
:101D4000B0FBF1F807E00AEBCA0000EB0A103168BB
:101D50008900B0FBF1F86420B8FBF0F00401200921
:101D6000642101FB1089A88900F4004040B13220B1
:101D700000EBC900B0FBF1F000F00700044308E0FD
:101D8000322000EB09106421B0FBF1F000F00F00ED
:101D900004432C8106B0BDE8F08700000038014004
:101DA00000BFFEE7490050EAC12018BF04204A0DD9
:101DB00018BF40F0010040F2FF72B2EB515F08BF64
:101DC00040F00200012808BF0520704700BF70479F
:101DD000FF214FF0E022916142F2283141435161ED
:101DE0001146096941F00101116100BF4FF0E02186
:101DF000096901F480310029F8D04FF0E021096928
:101E000021F001014FF0E0221161704730B5034627
:101E10000025B3F5E96F03DC1846FFF7D9FF15E09D
:101E200004E0A3F5E96083B2681C85B2B3F5E96FFD
:101E3000F7DA002405E04FF4E960FFF7C9FF601C02
:101E400084B2AC42F7DB1846FFF7C2FF30BDFF217A
:101E50004FF0E022916100EBC00151611146096928
:101E600041F00101116100BF4FF0E021096901F467
:101E700080310029F8D04FF0E021096921F00101FB
:101E80004FF0E0221161704700BF054A128802F04E
:101E90004002002AF9D0C2B2014B1B1D1A807047C4
:101EA000003801408AB00020019000240025FFF78F
:101EB00076FE4FF4E130FFF7ADFEFFF7C5FA01A95A
:101EC00002A8FFF7DFFA9DF804101AA0FEF7B0F998
:101ED00000BF21E002A810F8341019A0FEF7A8F9FD
:101EE0001CA0FEF7A5F9012508E002A800EBC4003C
:101EF000415D1AA0FEF79CF9681CC5B2072DF4DB02
:101F000013A0FEF795F902A800EBC400C17914A054
:101F1000FEF78EF9601CC4B29DF804008442D9DB40
:101F20004FF47A70FFF772FF02A8FFF72BFA00BF99
:101F3000FEE700006E756D3A25640D0A0000000092
:101F4000B5A5CFDFCFB5C1D0B1E0C2EBA3BA256450
:101F50000D0A0000B5D8D6B7A3BA0000256420004A
:101F6000435243D0A3D1E9C2EBA3BA25640D0A00C2
:101F700010B500290AD00878002807D00548784411
:101F8000FEF7C2FD002801D0002010BD02487844B1
:101F900010BD000002060000FA0500004FEA4103F0
:101FA0004FEA5353A3F58063D3F11E03C8BFD3F1A7
:101FB000210C0CDD4FF0004242EAC12242EA5052AD
:101FC00032FA03FC8CEAE17CACEBE1707047102B39
:101FD000C4BF0020704703F5787CBCF1FF3F04D0FC
:101FE0006FF0004282EA2100704770B500F0C6F839
:101FF0004992248000207047F2E710F0004248BF69
:102000004042B0FA80F310FA03F10AD0C3F11D0385
:1020100003F580634FEA415002EB035202EBD121FA
:1020200070474FF000007047DFF848C170B51CEAF8
:10203000111E1EBF1CEA13159EEA0C0F95EA0C0F29
:1020400000F06F8081EA030423EA4C134EEAD47E49
:1020500021EA4C1141F4801143F48013AE44A1FBFA
:10206000024CA0FB0365AEF17F7E361955EB0C05E3
:10207000A1FB034C4CF10003A0FB021C16EB0C0669
:10208000654153F10003094218BF46F0010613F4FD
:10209000007F0BD14FEA03314FEA0530340341EAA8
:1020A000155140EA16506FF003020AE04FEAC321CF
:1020B0004FEAC520F40241EA555140EA56506FF00C
:1020C000020202EB2E4201EB025585EACE710AD0E4
:1020D0005FEA440C18BF24F0004450F1000041F1C5
:1020E000000120EAD47040F2FE7C624500D270BD4F
:1020F000A84214BF4FF080444FF04044002E08BF68
:102100000024BEF1806FA8BFA1F1C041BDE87040BE
:1021100080F282804FF0000001F1C04101F00041E7
:1021200070479EEA0C0F0CEA131518BF95EA0C0FC6
:1021300006D04FF0000081EA030E0EF0004170BDA2
:1021400000F01CF88900013E00F007B800F009B863
:102150004FEA430C5FEA5C5C08D081EA030100F0BF
:102160005BB84FEA410C5FEA5C5CF6D14FF00000CF
:10217000014970470000FF070000F87F0EF1020ED2
:102180002EF0030E5EF8046B364205D4012A43EBB1
:10219000030515F5001F12D8012841EB010C1CF5B1
:1021A000001F0CD80ED14FEAD17C15F5001F0CEBA7
:1021B0004C0C0CF1020C08BF4CEBD37C04E04FF04C
:1021C000080C01E04FEAD37C0CEB4C0526FA05F62F
:1021D00006F00706B6F1040C06D20EEB860CBDE83D
:1021E00070404CF0010C6047DFE80CF0090B020274
:1021F0004FF000414FF00000A1F5002170BD1946DD
:102200001046012851EB010418BFD4F5001484BF17
:10221000002001F0004170BD0808A0F500114FEA50
:102220003101704743004FEAD30C4FEA3C0C434066
:102230001FBF40070CF1605113F0FE4F70471CF0B8
:10224000006F03D100200CF0004170470CF00043F8
:1022500043EA507010B540EACC0000F0E9F800BF46
:10226000000000924FEA0001FFF7D6BF4FF0004197
:102270004FF00000A1F50021704700004FF47F0CE3
:102280001CEAD0121EBF1CEAD11392EA0C0F93EA8B
:102290000C0F00F0858090EA010F48BF42F4807275
:1022A00040F4000C41F400002CF07F4120F07F400E
:1022B00000B58142A2EB03020FF2081CACEB504EBA
:1022C000C0F100009EF800E04FEA4E0E00FB0EFC4D
:1022D00038BF49004FEA2C1C02F5FA020CFB0EF342
:1022E0004FEACE1E4FEA112C4FEAC1210EEB635E7E
:1022F00042EB22420EFB0CFC4FEA1C5300FB031185
:102300004FEA112C4FEA01310EFB0CFC4FEADC4C7A
:1023100000FB0C11C14228BF09184CEB03335DF8D8
:1023200004EB10EB410143EBC250B2F57C0F38BF18
:10233000704729D512F0F00F1CBF00F1C04000F02B
:1023400000407047008182838485868788898B8CD2
:102350008D8E8F919293959697999A9C9D9FA0A20E
:10236000A3A5A7A8AAACAEB0B2B3B5B7B9BCBEC05E
:10237000C2C5C7C9CCCED1D4D7D9DCDFE2E6E9ECFF
:10238000F0F3F7FAFE0000004FEA400C0CF1807CFD
:10239000BCF17E4F28BF7047B0F1C04000F08EB84E
:1023A00090EA010F0CEAD11348BF42F480726245F3
:1023B00038BF634507D213F47F0F16D080EA0100BF
:1023C00000F00040704710B500F032F8097EFC3E86
:1023D00000F005B880EA010000F00040704780EA94
:1023E000010000F0004000F069B812F47F0F04BF54
:1023F0000248704780EA010000F060B80000C07F2A
:1024000010F0004148BF4042B0FA80F310FA03F2E6
:10241000C3F19D030BD051EAC35101EB12205306C7
:1024200038BF704700F1010008BF20F0010070477D
:102430000EF1020E2EF0030E5EF8044B244204D47B
:102440004FEA4102B2F17F4F11D84FEA4003B3F196
:102450007F4F0CD80ED14FEAD07CB2F17F4F0CEBFE
:102460004C0C0CF1020C08BF4CEBD17C04E04FF09B
:10247000080C01E04FEAD17C0CEB4C0324FA03F486
:1024800004F00704B4F1040C06D20EEB840CBDE892
:1024900010404CF0010C6047DFE80CF00708020226
:1024A0004FF00040A0F5800010BD0846420018BF64
:1024B000D2F1807288BF00F0004010BDFF2141EAD8
:1024C000D050C0057047FEF78CB8000002400000F5
:1024D000000000A00000000005400000000000C84F
:1024E000000000000C4000000000409C00000000C4
:1024F000194000000020BCBE000000003440000075
:10250000BFC91B8E00000004B5400000504BCFD067
:102510006607E2CF010000006C4100003E8251AA34
:10252000DFEEA73401000000D9420000DCB5A0E2D4
:102530003A301F97FFFFFFFFB4450000FD25A0C8FC
:10254000E9A3C14FFFFFFFFFFF3F00000000008035
:1025500000000000FF3F00000000008000000000BD
:102560009C25000800000020180000006C010008F5
:10257000B42500081800002060060000880100084B
:102580001C00000043000000F8FFFFFF0C000000EB
:102590000E0000000F0000002E00000000000000F0
:1025A00000000000010203040102030406070809F9
:0425B0000204060813
:0400000508000131BD
:00000001FF
