:020000040800F2
:1000000068060020D5010008D9010008DB010008BE
:10001000DD010008DF010008E10100080000000028
:10002000000000000000000000000000E3010008E4
:10003000E501000800000000E7010008E9010008F0
:10004000EB010008EB010008EB010008EB010008E0
:10005000EB010008EB010008EB010008EB010008D0
:10006000EB010008EB010008EB010008EB010008C0
:10007000EB010008EB010008EB010008EB010008B0
:10008000EB010008EB010008EB010008EB010008A0
:10009000EB010008EB010008EB010008EB01000890
:1000A000EB010008EB010008EB010008EB01000880
:1000B000EB010008EB010008EB010008EB01000870
:1000C000EB010008EB010008EB010008EB01000860
:1000D000EB010008EB010008EB010008EB01000850
:1000E000EB010008EB010008EB010008EB01000840
:1000F000EB010008EB010008EB010008EB01000830
:10010000EB010008EB010008EB010008EB0100081F
:10011000EB010008EB010008EB010008EB0100080F
:10012000EB010008EB010008EB010008EB010008FF
:1001300000F002F800F03FF80AA090E8000C8244BA
:100140008344AAF10107DA4501D100F034F8AFF297
:10015000090EBAE80F0013F0010F18BFFB1A43F0A5
:1001600001031847DC0B0000FC0B0000103A24BF11
:1001700078C878C1FAD8520724BF30C830C144BF0C
:1001800004680C607047000000230024002500264E
:10019000103A28BF78C1FBD8520728BF30C148BFEA
:1001A0000B607047642900F07380002070471FB512
:1001B0001FBD10B510BD00F059F91146FFF7F7FF4C
:1001C00000F04AFD00F077F903B4FFF7F2FF03BC3B
:1001D00000F014FD08480047FEE7FEE7FEE7FEE7F3
:1001E000FEE7FEE7FEE7FEE7FEE7FEE70348044919
:1001F000044A054B704700003101000868000020E8
:100200006806002068020020680200207047000095
:100210000FB4044910B503AA029800F0F9F810BC15
:100220005DF814FB000000202DE9F0410E46044665
:10023000002020622046E168884730B3252805D099
:10024000D4E901219047206A401CF2E7E16820468A
:1002500000278847050018D0A5F14100192802D8C9
:1002600020354FF400673246294620462760FFF7C5
:1002700099FF40B1012804D0F61D26F00706083684
:10028000D8E7361DD6E72846DAE7206ABDE8F081D0
:100290002DE9F0410646002410687529314616A55F
:1002A00010D0AFF30080002802DA404213A507E027
:1002B00031688A0701D512A502E0490704D511A5C6
:1002C000012401E0AFF3008000210A2206F1240797
:1002D00009E0B0FBF2FCB0FBF2F302FB1C00303093
:1002E00078541846491C0028F3D123462A46304644
:1002F000BDE8F04100F033B8000000002D00000020
:100300002B000000200000004FF0000200B5134653
:1003100094469646203922BFA0E80C50A0E80C5025
:10032000B1F12001BFF4F7AF090728BFA0E80C50D6
:1003300048BF0CC05DF804EB890028BF40F8042BCF
:1003400008BF704748BF20F8022B11F0804F18BF3C
:1003500000F8012B704770477047704770472DE9D0
:10036000F0470D4699469246044600F1240801687C
:10037000880604D5E06921F01001216000E0012029
:10038000A84201DD471B00E00027A1697A1902EBB2
:100390000900081AA0612078C00602D42046AFF3F5
:1003A0000080002608E0D4E901211AF806009047F1
:1003B000206A401C761C20624E45F4DB2078C00683
:1003C0000AD52046AFF3008006E0D4E901213020B1
:1003D0009047206A401C2062381EA7F10107F4DC18
:1003E00007E0D4E9012118F805009047206A401C75
:1003F0002062281EA5F10105F3DC2046AFF3008042
:100400002078000602D50220BDE8F0870120FBE736
:10041000074B70B50D467B4400F011F804462846A2
:1004200000F020F810B14FF0FF3070BD204670BDD5
:100430002308000001694A1C02610878704700B572
:100440008FB0CDE901310021059105497944CDE90D
:10045000031011466846FFF7E7FE0FB000BD00002D
:10046000E5FFFFFF007B00F080007047754600F05D
:1004700029F8AE4605006946534620F00700854638
:1004800018B020B5FFF7B2FEBDE820404FF00006DF
:100490004FF000074FF000084FF0000B21F007016C
:1004A000AC46ACE8C009ACE8C009ACE8C009ACE8AF
:1004B000C0098D4670470446AFF300802046FFF721
:1004C00083FE0000004870470400002070B500253E
:1004D0003C241748406820F470401549486008469D
:1004E000406840F40040486008E0601EC4B23C2C04
:1004F00001D1284670BD012000F083FB0C488068C4
:1005000000F400600028F0D1F02409E00848806879
:1005100000F4006008B1012507E0012000F071FB44
:100520002000A4F10101CCB2F0D100BF2846E1E7E0
:100530000020014010B50C48806940F480700A49E1
:1005400088610A48406820F47040084948600846BD
:10055000406840F4405048600846C06820F400609D
:10056000C86000F0ABF810BD001002400020014050
:100570002DE9F04FA1B007468B464FF0000840210F
:1005800011A8FFF7C1FE402101A8FFF7BDFE00261C
:100590000020387000BF00F091F8F02000F0BAF9A8
:1005A000002475E0002568E04FEA680800F0AAF82A
:1005B00082460AF0030ABAF1010F07D1002005EBC9
:1005C000C40111AA505400F071F954E0BAF1020FBD
:1005D00009D1012005EBC40111AA505448F080084C
:1005E00000F064F947E0BAF1000F3CD105EBC4001C
:1005F000401C00F0FF0901A8805D48450DDA701C21
:10060000C6B201A800F80690002000F04FF90020C3
:1006100005EBC40111AA50542DE001A8805D4845A6
:100620000EDA05EBC40011A9085C00F0010048EAED
:10063000C01805EBC40111AA505C00F037F91AE0AC
:1006400001A8805D484516D148F08008012005EBDF
:10065000C40111AA505400F029F9002001A98855BD
:10066000701EC6B207E00020387010A0FFF7D0FD62
:1006700021B0BDE8F08F681CC5B2082D94DB387836
:100680000BEBC00000F804804FF00008601CC4B2FF
:10069000082C87DB3878401C387001A8805D18B1C1
:1006A000387804287FF777AF00BFE1E7C3BBD3D02A
:1006B000445331384232300D0A00000010B5104862
:1006C000406820F470400E4948600846406840F495
:1006D000405048600846C06820F40060C8604FF48D
:1006E0002F7000F08EFA0648C06840F4006004499C
:1006F000C8600F2000F085FAFFF7E8FE10BD00008B
:100700000020014070B5002400253DE06006040E85
:100710001F48406820F470401D4948600846406802
:1007200040F4405048600846C06820F40060C8604B
:10073000012000F066FA1648C06840F400601449D1
:10074000C8600C2000F05DFA1148406820F4704049
:100750000F4948600846406840F400404860084639
:10076000806800F4006008B144F00104322000F019
:1007700048FA0748C06840F400600549C860022094
:1007800000F03FFA681CC5B2022DBFDB204670BDE9
:100790000020014070B5002500243DE0204840685D
:1007A00020F470401E4948600846406840F44050BC
:1007B00048600846C06820F40060C860012000F06E
:1007C00020FA1748C06840F400601549C8600C2042
:1007D00000F017FA1248406820F470401049486051
:1007E0000846406840F4004048600846806800F4CD
:1007F000006018B10120A0402843C5B2322000F0AB
:1008000000FA0748C06840F400600549C86002204B
:1008100000F0F7F9601CC4B2082CBFDB284670BD9D
:10082000002001401CB5FFF749FF332000F072F8AB
:10083000002405E0FFF7AEFF0DF80400601CC4B211
:10084000082CF7DB9DF800100CA0FFF7E1FC10A0CE
:10085000FFF7DEFC012406E01DF804100EA0FFF7F0
:10086000D7FC601CC4B2072CF6DB08A0FFF7D0FC55
:100870009DF8071009A0FFF7CBFC1CBDB5A5CFDF85
:10088000CFB5C1D0B1E0C2EBA3BA25640D0A000018
:10089000B5D8D6B7A3BA000025642000435243D090
:1008A000A3D1E9C2EBA3BA25640D0A0010B5044632
:1008B0001748406820F47040154948600846406871
:1008C00040F4405048600846C06820F40060C860AA
:1008D0000C2000F096F904F0010030B10C48C0681B
:1008E00040F400600A49C86005E00948C06820F487
:1008F00000600749C860372000F083F90448C068E9
:1009000040F400600249C860012000F07AF910BD8F
:100910000020014070B504461B48406820F4704038
:10092000194948600846406840F440504860002536
:1009300027E01548C06820F400601349C8600C2007
:1009400000F05FF904F0010030B10F48C06840F4D6
:1009500000600D49C86005E00B48C06820F40060E5
:100960000949C860372000F04CF90748C06840F4D6
:1009700000600549C860012000F043F96410681C5C
:10098000C5B2082DD5DB70BD0020014000B50020A8
:1009900015490861C8601420486100208861C86159
:1009A0000846006840F001000860084640680F49AA
:1009B00008400D494860084600680D4908400A494A
:1009C00008600846006820F48020086008464068F7
:1009D00020F4FE0048600020886000214FF0006095
:1009E00000F008F800BD0000001002400000FFF811
:1009F000FFFFF6FE024A0A400243024B1A607047AC
:100A000080FFFF1F08ED00E000F01F020121914070
:100A10004209920002F1E022C2F800117047F0B5DD
:100A200003460C4603F00701C1F10700042801D971
:100A3000042001E0C1F107000646081D072801D285
:100A4000002000E0C81E05460120B040401E2040A6
:100A5000A8400127AF407F1E17403843F0BD00007B
:100A600010B5002807DA0A07140E054A00F00F0334
:100A70001B1FD45403E00A07130E024A135410BD7F
:100A800018ED00E000E400E030B504460025FFF773
:100A90007DFF1F48006840F480301D49086000BF9A
:100AA0001B480068400C0028FAD04FF480601849B9
:100AB0004860A01EC4B20846406840EA84404860CE
:100AC0000846406840F4803048601248006840F0B2
:100AD0003200104908600E48006840F080700C49F0
:100AE000086000BF0A480068400E0028FAD0084895
:100AF000406840F002000649486005E0044840684C
:100B0000C0F3870505F00305022DF7D130BD0000C5
:100B100000100240002002404FF0E020006920F069
:100B200004004FF0E02108617047000070B50446F2
:100B30002D48806940F004002B4988612B480068EB
:100B400020F47F60294908600846006840F49660F8
:100B500008602748406820F0040025494860224882
:100B6000C06840F480402049C8600846C06820F44E
:100B70008040C8600846806940F4804088611D4814
:100B8000008820F480501B4908800846008840F007
:100B90000C0008800846008840F0200008800846C5
:100BA000008840F010000880081D008820F44050A4
:100BB000091D08801048B0FBF4F00E49091F088099
:100BC000022201210520FFF72AFFC5B22946252070
:100BD000FFF746FF2520FFF717FF0648008840F47F
:100BE00000500449088070BD001002400408014014
:100BF000000001400C38014000A24A04014600BF39
:100C00007047FF214FF0E022916100EBC00151617C
:100C10001146096941F00101116100BF4FF0E02167
:100C2000096901F480310029F8D04FF0E021096909
:100C300021F001014FF0E0221161704700BF054A29
:100C4000128802F04002002AF9D0C2B2014B1B1DEB
:100C50001A807047003801408AB0002009900920AE
:100C6000FFF712FF05200246244B19684FF6FF03D9
:100C70001940234B0B4343EA0221204B196000BF6C
:100C8000FFF74AFF4FF4E130FFF750FFFFF752FC48
:100C9000FFF7C8FD01A909A8FFF76AFC9DF8241019
:100CA00018A0FFF7B5FA002421E001A810F83410CD
:100CB00017A0FFF7ADFA1BA0FFF7AAFA012508E07D
:100CC00001A800EBC400415D18A0FFF7A1FA681C61
:100CD000C5B2072DF4DB12A0FFF79AFA01A800EBCA
:100CE000C400C17912A0FFF793FA601CC4B29DF84A
:100CF00024008442D9DB00BFFEE700000CED00E0D9
:100D00000000FA056E756D3A25640D0A00000000BA
:100D1000B5A5CFDFCFB5C1D0B1E0C2EBA3BA256492
:100D20000D0A0000B5D8D6B7A3BA0000256420008C
:100D3000435243D0A3D1E9C2EBA3BA25640D0A0004
:100D4000600D000800000020040000006C01000895
:100D5000640D0008040000206406000088010008FB
:040D6000000000008F
:0400000508000131BD
:00000001FF
